:100000000C9434000C943E000C943E000C943E0082
:100010000C943E000C943E000C943E000C943E0068
:100020000C943E000C943E000C943E000C943E0058
:100030000C943E000C943E000C943E000C943E0048
:100040000C943E000C943E000C943E000C943E0038
:100050000C943E000C943E000C943E000C943E0028
:100060000C943E000C943E0011241FBECFEFD8E04C
:10007000DEBFCDBF0E9440000C945C000C940000D9
:1000800084B1876084B920E061E070E049E150E02C
:10009000CB01022E02C0880F991F0A94E2F785B99E
:1000A00088E893E1FA013197F1F70197D9F72F5FCB
:0C00B000233070F320E0ECCFF894FFCF79
:00000001FF
