:100000000C9434000C943E000C943E000C943E0082
:100010000C943E000C943E000C943E000C943E0068
:100020000C943E000C943E000C943E000C943E0058
:100030000C943E000C943E000C943E000C943E0048
:100040000C943E000C943E000C943E000C943E0038
:100050000C943E000C943E000C943E000C943E0028
:100060000C943E000C943E0011241FBECFEFD8E04C
:10007000DEBFCDBF0E9440000C9466000C940000CF
:100080008FEF84B980E021E030E0853078F4A90179
:10009000082E01C0440F0A94EAF745B9E7EAF1E6F1
:1000A0003197F1F700C000008F5FEFCFA901082E54
:1000B00001C0440F0A94EAF745B9E7EAF1E631973F
:1000C000F1F700C00000815089F7E1CFF894FFCF2D
:00000001FF
