:100000000C9434000C943E000C943E000C943E0082
:100010000C943E000C943E000C943E000C943E0068
:100020000C943E000C943E000C943E000C943E0058
:100030000C943E000C943E000C943E000C943E0048
:100040000C943E000C943E000C943E000C943E0038
:100050000C943E000C943E000C943E000C943E0028
:100060000C943E000C943E0011241FBECFEFD8E04C
:10007000DEBFCDBF0E9440000C9467000C940000CE
:1000800084B1876084B941E029E130E045B988E86E
:1000900093E1F9013197F1F70197D9F7299A88E8A7
:1000A00093E1F9013197F1F70197D9F72A9A88E896
:1000B00093E1F9013197F1F70197D9F715B888E87D
:1000C00093E1F9013197F1F70197D9F7DFCFF89470
:0200D000FFCF60
:00000001FF
