:100000000C9434000C943E000C943E000C943E0082
:100010000C943E000C943E000C943E000C943E0068
:100020000C943E000C943E000C943E000C943E0058
:100030000C943E000C943E000C943E000C943E0048
:100040000C943E000C943E000C943E000C943E0038
:100050000C943E000C943E000C943E000C943E0028
:100060000C943E000C943E0011241FBECFEFD8E04C
:10007000DEBFCDBF0E9440000C9461000C940000D4
:1000800084B1876084B961E029E130E052E044E066
:1000900065B980E29EE4F9013197F1F70197D9F74C
:1000A00055B980E29EE4F9013197F1F70197D9F74C
:1000B00045B980E29EE4F9013197F1F70197D9F74C
:0600C000E7CFF894FFCF2A
:00000001FF
