:100000000C9434000C9449000C9449000C94490061
:100010000C9449000C9449000C9449000C9449003C
:100020000C9449000C9449000C9449000C9449002C
:100030000C9449000C9449000C9449000C9449001C
:100040000C9449000C9449000C9449000C9449000C
:100050000C9449000C9449000C9449000C944900FC
:100060000C9449000C94490011241FBECFEFD8E036
:10007000DEBFCDBF11E0A0E0B1E0ECE1F1E002C0F5
:1000800005900D92A031B107D9F70E944B000C9456
:100090008C000C9400008FEF84B90E945A0080E01D
:1000A00091E00E9479000E947200C82F0E946B00AC
:1000B000C5B9F9CF1092C5008CE08093C400E0EC84
:1000C000F0E080818260808388E18093C10086E0D7
:1000D0008093C20008959091C00095FFFCCF80935B
:1000E000C60008958091C00087FFFCCF8091C600B4
:1000F00008950F931F93CF938C01C0E0F801EC0F8C
:10010000F11D8081882321F00E946B00CF5FF6CF24
:0C011000CF911F910F910895F894FFCF3C
:10011C0048656C6C6F20576F726C64210D0A00007F
:00000001FF
